{
  "address": "0x33F7f097629771936003F82F76eF5A807cc82eb4",
  "abi": [
    {
      "inputs": [
        {
          "internalType": "contract GateKeeper",
          "name": "gateKeeper",
          "type": "address"
        },
        {
          "internalType": "contract SupplyChainRegistry",
          "name": "registry",
          "type": "address"
        }
      ],
      "stateMutability": "nonpayable",
      "type": "constructor"
    },
    {
      "anonymous": false,
      "inputs": [
        {
          "indexed": false,
          "internalType": "address",
          "name": "statemachine",
          "type": "address"
        }
      ],
      "name": "StateMachineCreated",
      "type": "event"
    },
    {
      "inputs": [],
      "name": "CREATE_STATEMACHINE_ROLE",
      "outputs": [
        {
          "internalType": "bytes32",
          "name": "",
          "type": "bytes32"
        }
      ],
      "stateMutability": "view",
      "type": "function"
    },
    {
      "inputs": [],
      "name": "UPDATE_UIFIELDDEFINITIONS_ROLE",
      "outputs": [
        {
          "internalType": "bytes32",
          "name": "",
          "type": "bytes32"
        }
      ],
      "stateMutability": "view",
      "type": "function"
    },
    {
      "inputs": [
        {
          "internalType": "string",
          "name": "Order_Number",
          "type": "string"
        },
        {
          "internalType": "string",
          "name": "ipfsFieldContainerHash",
          "type": "string"
        }
      ],
      "name": "create",
      "outputs": [],
      "stateMutability": "nonpayable",
      "type": "function"
    },
    {
      "inputs": [],
      "name": "gateKeeper",
      "outputs": [
        {
          "internalType": "contract GateKeeper",
          "name": "",
          "type": "address"
        }
      ],
      "stateMutability": "view",
      "type": "function"
    },
    {
      "inputs": [],
      "name": "getUIFieldDefinitionsHash",
      "outputs": [
        {
          "internalType": "string",
          "name": "",
          "type": "string"
        }
      ],
      "stateMutability": "view",
      "type": "function"
    },
    {
      "inputs": [
        {
          "internalType": "string",
          "name": "uiFieldDefinitionsHash",
          "type": "string"
        }
      ],
      "name": "setUIFieldDefinitionsHash",
      "outputs": [],
      "stateMutability": "nonpayable",
      "type": "function"
    }
  ],
  "transactionHash": "0x5c4725db319f27023809ce21ca98817bfa19df8d68e14dc27dd812bad5c9b934",
  "args": [
    "0x2241aA28341DeC9a85AB14923314Ab5Bd27cD4Bc",
    "0x587734A316A3764856ad96cE93E2F2385794aAC1"
  ],
  "numDeployments": 1,
  "solcInputHash": "c9c99da8d1d067b7af665a0133576b4c",
  "bytecode": "0x608060405234801561001057600080fd5b5060405161369c38038061369c83398101604081905261002f91610078565b600180546001600160a01b039384166001600160a01b031991821617909155600280549290931691161790556100b2565b6001600160a01b038116811461007557600080fd5b50565b6000806040838503121561008b57600080fd5b825161009681610060565b60208401519092506100a781610060565b809150509250929050565b6135db806100c16000396000f3fe60806040523480156200001157600080fd5b50600436106200006a5760003560e01c8063198e2b8a146200006f5780631f0f992a1462000088578063309c70cf14620000c3578063459b9af914620000e657806345d61ded14620000ff57806382f68683146200012c575b600080fd5b62000086620000803660046200081d565b62000143565b005b620000b07f5550444154455f55494649454c44444546494e4954494f4e535f524f4c45000081565b6040519081526020015b60405180910390f35b620000b0774352454154455f53544154454d414348494e455f524f4c4560401b81565b620000f0620004dd565b604051620000ba9190620008d8565b60015462000113906001600160a01b031681565b6040516001600160a01b039091168152602001620000ba565b620000866200013d366004620008ed565b62000577565b774352454154455f53544154454d414348494e455f524f4c4560401b6040518060600160405280602581526020016200358160259139620001853383620005fc565b8190620001b05760405162461bcd60e51b8152600401620001a79190620008d8565b60405180910390fd5b5083518490620002035760405162461bcd60e51b815260206004820152601a60248201527f41204f726465725f4e756d6265722069732072657175697265640000000000006044820152606401620001a7565b6001546040516000916001600160a01b0316908790879084906200022790620006a8565b6200023694939291906200096b565b604051809103906000f08015801562000253573d6000803e3d6000fd5b5090506000816001600160a01b031663710613986040518163ffffffff1660e01b815260040160006040518083038186803b1580156200029257600080fd5b505afa158015620002a7573d6000803e3d6000fd5b505050506040513d6000823e601f3d908101601f19168201604052620002d1919081019062000a5c565b905060005b8151811015620004355760015482516001600160a01b039091169063be038478908290630ef9ae399086908690811062000314576200031462000b0d565b60200260200101516040518263ffffffff1660e01b81526004016200033b91815260200190565b60206040518083038186803b1580156200035457600080fd5b505afa15801562000369573d6000803e3d6000fd5b505050506040513d601f19601f820116820180604052508101906200038f919062000b23565b85858581518110620003a557620003a562000b0d565b60209081029190910101516040516001600160e01b031960e086901b1681526001600160a01b0393841660048201529290911660248301526044820152306064820152608401600060405180830381600087803b1580156200040657600080fd5b505af11580156200041b573d6000803e3d6000fd5b5050505080806200042c9062000b4e565b915050620002d6565b50600254604051635e48156960e11b81526001600160a01b0384811660048301529091169063bc902ad290602401600060405180830381600087803b1580156200047e57600080fd5b505af115801562000493573d6000803e3d6000fd5b50506040516001600160a01b03851681527f9133c0c22004f4e0d1b425e3f564b710f3fda1af39a2e9565a1ce53eda52f7889250602001905060405180910390a150505050505050565b606060008054620004ee906200092e565b80601f01602080910402602001604051908101604052809291908181526020018280546200051c906200092e565b80156200056d5780601f1062000541576101008083540402835291602001916200056d565b820191906000526020600020905b8154815290600101906020018083116200054f57829003601f168201915b5050505050905090565b7f5550444154455f55494649454c44444546494e4954494f4e535f524f4c4500006040518060600160405280602b815260200162003556602b9139620005be3383620005fc565b8190620005e05760405162461bcd60e51b8152600401620001a79190620008d8565b508251620005f6906000906020860190620006b6565b50505050565b6001546000906001600160a01b03161580620006a15750600154604051630dace25b60e31b81526001600160a01b0385811660048301523060248301526044820185905290911690636d6712d89060640160206040518083038186803b1580156200066657600080fd5b505afa1580156200067b573d6000803e3d6000fd5b505050506040513d601f19601f82011682018060405250810190620006a1919062000b78565b9392505050565b6129b98062000b9d83390190565b828054620006c4906200092e565b90600052602060002090601f016020900481019282620006e8576000855562000733565b82601f106200070357805160ff191683800117855562000733565b8280016001018555821562000733579182015b828111156200073357825182559160200191906001019062000716565b506200074192915062000745565b5090565b5b8082111562000741576000815560010162000746565b634e487b7160e01b600052604160045260246000fd5b604051601f8201601f1916810167ffffffffffffffff811182821017156200079e576200079e6200075c565b604052919050565b600082601f830112620007b857600080fd5b813567ffffffffffffffff811115620007d557620007d56200075c565b620007ea601f8201601f191660200162000772565b8181528460208386010111156200080057600080fd5b816020850160208301376000918101602001919091529392505050565b600080604083850312156200083157600080fd5b823567ffffffffffffffff808211156200084a57600080fd5b6200085886838701620007a6565b935060208501359150808211156200086f57600080fd5b506200087e85828601620007a6565b9150509250929050565b6000815180845260005b81811015620008b05760208185018101518683018201520162000892565b81811115620008c3576000602083870101525b50601f01601f19169290920160200192915050565b602081526000620006a1602083018462000888565b6000602082840312156200090057600080fd5b813567ffffffffffffffff8111156200091857600080fd5b6200092684828501620007a6565b949350505050565b600181811c908216806200094357607f821691505b602082108114156200096557634e487b7160e01b600052602260045260246000fd5b50919050565b6001600160a01b038516815260806020808301829052600091620009929084018762000888565b8381036040850152620009a6818762000888565b905083810360608501526000855481600182811c915080831680620009cc57607f831692505b868310811415620009eb57634e487b7160e01b85526022600452602485fd5b82865260208601955080801562000a0b576001811462000a1d5762000a4a565b60ff1985168752878701955062000a4a565b60008b81526020902060005b8581101562000a445781548982015290840190890162000a29565b88019650505b50939c9b505050505050505050505050565b6000602080838503121562000a7057600080fd5b825167ffffffffffffffff8082111562000a8957600080fd5b818501915085601f83011262000a9e57600080fd5b81518181111562000ab35762000ab36200075c565b8060051b915062000ac684830162000772565b818152918301840191848101908884111562000ae157600080fd5b938501935b8385101562000b015784518252938501939085019062000ae6565b98975050505050505050565b634e487b7160e01b600052603260045260246000fd5b60006020828403121562000b3657600080fd5b81516001600160a01b0381168114620006a157600080fd5b600060001982141562000b7157634e487b7160e01b600052601160045260246000fd5b5060010190565b60006020828403121562000b8b57600080fd5b81518015158114620006a157600080fdfe610100604052692927a622afa0a226a4a760b11b6080908152692927a622afa12aaca2a960b11b60a0526c2927a622afa9aaa8282624a2a960991b60c0526f2927a622afaa2920a729a827a92a22a960811b60e0526200006490600b90600462000cbd565b503480156200007257600080fd5b50604051620029b9380380620029b9833981016040819052620000959162000e6d565b600080546001600160a01b0319166001600160a01b0386161790558251620000c590600d90602086019062000d0d565b508151620000db90600790602085019062000d0d565b508051620000f190600c90602084019062000d0d565b50620000fc62000106565b5050505062000f5c565b620001246f1111535053910811d15391549055115160821b6200097c565b6200013e6b13d49111548814131050d15160a21b6200097c565b62000154671050d0d15415115160c21b6200097c565b620001696613d3881213d31160ca1b6200097c565b6200017f67111150d31253915160c21b6200097c565b6200019a6c24a710282927a22aa1aa24a7a760991b6200097c565b620001b4600080516020620029398339815191526200097c565b620001ce600080516020620029798339815191526200097c565b620001e8600080516020620028f98339815191526200097c565b62000202600080516020620029598339815191526200097c565b620002206f4f555420464f522044454c495645525960801b6200097c565b6200023a600080516020620029998339815191526200097c565b6200024f6614d2115315915160ca1b6200097c565b620002616314d3d31160e21b6200097c565b6200027868111254d0d05491115160ba1b6200097c565b620002a66f1111535053910811d15391549055115160821b6b13d49111548814131050d15160a21b62000a3a565b620002cc6b13d49111548814131050d15160a21b671050d0d15415115160c21b62000a3a565b620002f16b13d49111548814131050d15160a21b6613d3881213d31160ca1b62000a3a565b620003176b13d49111548814131050d15160a21b67111150d31253915160c21b62000a3a565b6200033e671050d0d15415115160c21b6c24a710282927a22aa1aa24a7a760991b62000a3a565b620003696c24a710282927a22aa1aa24a7a760991b6000805160206200293983398151915262000a3a565b62000393600080516020620029398339815191526000805160206200297983398151915262000a3a565b620003bd60008051602062002979833981519152600080516020620028f983398151915262000a3a565b620003e7600080516020620028f98339815191526000805160206200295983398151915262000a3a565b62000415600080516020620029598339815191526f4f555420464f522044454c495645525960801b62000a3a565b620004436f4f555420464f522044454c495645525960801b6000805160206200299983398151915262000a3a565b62000468600080516020620029998339815191526614d2115315915160ca1b62000a3a565b6200048a600080516020620029998339815191526314d3d31160e21b62000a3a565b620004b16000805160206200299983398151915268111254d0d05491115160ba1b62000a3a565b620004dd6f1111535053910811d15391549055115160821b692927a622afa12aaca2a960b11b62000b1a565b620005056b13d49111548814131050d15160a21b692927a622afa12aaca2a960b11b62000b1a565b6200052c671050d0d15415115160c21b6c2927a622afa9aaa8282624a2a960991b62000b1a565b620005526613d3881213d31160ca1b6c2927a622afa9aaa8282624a2a960991b62000b1a565b6200057967111150d31253915160c21b6c2927a622afa9aaa8282624a2a960991b62000b1a565b620005a56c24a710282927a22aa1aa24a7a760991b6c2927a622afa9aaa8282624a2a960991b62000b1a565b620005d0600080516020620029398339815191526c2927a622afa9aaa8282624a2a960991b62000b1a565b620005fe600080516020620029798339815191526f2927a622afaa2920a729a827a92a22a960811b62000b1a565b6200062a600080516020620028f98339815191526d524f4c455f57415245484f55534560901b62000b1a565b62000656600080516020620029598339815191526d524f4c455f57415245484f55534560901b62000b1a565b620006886f4f555420464f522044454c495645525960801b6f2927a622afaa2920a729a827a92a22a960811b62000b1a565b620006b060008051602062002999833981519152692927a622afa12aaca2a960b11b62000b1a565b620006d36614d2115315915160ca1b692927a622afa12aaca2a960b11b62000b1a565b620006f36314d3d31160e21b692927a622afa12aaca2a960b11b62000b1a565b6200071868111254d0d05491115160ba1b692927a622afa12aaca2a960b11b62000b1a565b620007446f1111535053910811d15391549055115160821b692927a622afa0a226a4a760b11b62000b1a565b6200076c6b13d49111548814131050d15160a21b692927a622afa0a226a4a760b11b62000b1a565b62000790671050d0d15415115160c21b692927a622afa0a226a4a760b11b62000b1a565b620007b36613d3881213d31160ca1b692927a622afa0a226a4a760b11b62000b1a565b620007d767111150d31253915160c21b692927a622afa0a226a4a760b11b62000b1a565b620008006c24a710282927a22aa1aa24a7a760991b692927a622afa0a226a4a760b11b62000b1a565b6200082860008051602062002939833981519152692927a622afa0a226a4a760b11b62000b1a565b6200085060008051602062002979833981519152692927a622afa0a226a4a760b11b62000b1a565b62000878600080516020620028f9833981519152692927a622afa0a226a4a760b11b62000b1a565b620008a060008051602062002959833981519152692927a622afa0a226a4a760b11b62000b1a565b620008cc6f4f555420464f522044454c495645525960801b692927a622afa0a226a4a760b11b62000b1a565b620008f460008051602062002999833981519152692927a622afa0a226a4a760b11b62000b1a565b620009176614d2115315915160ca1b692927a622afa0a226a4a760b11b62000b1a565b620009376314d3d31160e21b692927a622afa0a226a4a760b11b62000b1a565b6200095c68111254d0d05491115160ba1b692927a622afa0a226a4a760b11b62000b1a565b6200097a6f1111535053910811d15391549055115160821b62000b9d565b565b60008181526002602052604090205460ff1615620009ed5760405162461bcd60e51b815260206004820152602360248201527f746869732073746174652068617320616c7265616479206265656e20637265616044820152621d195960ea1b60648201526084015b60405180910390fd5b6000818152600260205260408120805460ff191660019081179091556003805491820181559091527fc2575a0e9e593c00f959f8c92f12db2869c3395a3b0502d05e2516446f71f85b0155565b600082815260026020526040902054829060ff1662000a965760405162461bcd60e51b8152602060048201526022602482015260008051602062002919833981519152604482015261195d60f21b6064820152608401620009e4565b600082815260026020526040902054829060ff1662000af25760405162461bcd60e51b8152602060048201526022602482015260008051602062002919833981519152604482015261195d60f21b6064820152608401620009e4565b5050600091825260026020908152604083206005018054600181018255908452922090910155565b600082815260026020526040902054829060ff1662000b765760405162461bcd60e51b8152602060048201526022602482015260008051602062002919833981519152604482015261195d60f21b6064820152608401620009e4565b50600091825260026020818152604084209091018054600181018255908452922090910155565b60008181526002602052604090205460ff1662000c105760405162461bcd60e51b815260206004820152602a60248201527f74686520696e697469616c20737461746520686173206e6f74206265656e20636044820152691c99585d1959081e595d60b21b6064820152608401620009e4565b6004541562000cb85760405162461bcd60e51b815260206004820152606160248201527f7468652063757272656e742073746174652068617320616c726561647920626560448201527f656e207365742c20736f20796f752063616e6e6f7420636f6e6669677572652060648201527f74686520696e697469616c20737461746520616e64206f7665727269646520696084820152601d60fa1b60a482015260c401620009e4565b600455565b82805482825590600052602060002090810192821562000cfb579160200282015b8281111562000cfb57825182559160200191906001019062000cde565b5062000d0992915062000d89565b5090565b82805462000d1b9062000f1f565b90600052602060002090601f01602090048101928262000d3f576000855562000cfb565b82601f1062000d5a57805160ff191683800117855562000cfb565b8280016001018555821562000cfb579182018281111562000cfb57825182559160200191906001019062000cde565b5b8082111562000d09576000815560010162000d8a565b634e487b7160e01b600052604160045260246000fd5b600082601f83011262000dc857600080fd5b81516001600160401b038082111562000de55762000de562000da0565b604051601f8301601f19908116603f0116810190828211818310171562000e105762000e1062000da0565b8160405283815260209250868385880101111562000e2d57600080fd5b600091505b8382101562000e51578582018301518183018401529082019062000e32565b8382111562000e635760008385830101525b9695505050505050565b6000806000806080858703121562000e8457600080fd5b84516001600160a01b038116811462000e9c57600080fd5b60208601519094506001600160401b038082111562000eba57600080fd5b62000ec88883890162000db6565b9450604087015191508082111562000edf57600080fd5b62000eed8883890162000db6565b9350606087015191508082111562000f0457600080fd5b5062000f138782880162000db6565b91505092959194509250565b600181811c9082168062000f3457607f821691505b6020821081141562000f5657634e487b7160e01b600052602260045260246000fd5b50919050565b61198d8062000f6c6000396000f3fe608060405234801561001057600080fd5b50600436106102485760003560e01c80639086b2e31161013b578063be5bfaad116100b8578063ecf870cc1161007c578063ecf870cc14610553578063ef120a6e1461056d578063f4a979a314610575578063f78014fd14610588578063fcbb59071461059b57600080fd5b8063be5bfaad146104e7578063c8691b2a14610503578063d391014b14610516578063d8b005271461052a578063ddb78f0a1461054157600080fd5b8063a7a38f0b116100ff578063a7a38f0b1461044e578063aa535fb414610490578063ab2ca63d146104a4578063b40b3423146104bb578063bc7b8b24146104cd57600080fd5b80639086b2e31461040f578063910fd10a146104255780639d861fe01461042d578063a4ddb0711461043e578063a54df3321461044657600080fd5b8063489f19eb116101c9578063694f11051161018d578063694f1105146103b357806371061398146103c65780637b581098146103ce5780638624c269146103e95780638cb92832146103f757600080fd5b8063489f19eb146103615780634de6740e1461037657806350123ff71461037e5780635478f4681461039857806356c57bd1146103a057600080fd5b8063304b1bd111610210578063304b1bd1146102eb578063378aa701146102fe5780633a7fae12146103065780633e44694f1461032157806345d61ded1461033657600080fd5b806309648a9d1461024d5780630b1cbe2f1461027a5780630c0c3059146102a75780631eeda95d146102b85780632e2bc0d5146102d6575b600080fd5b61026061025b3660046114e4565b6105c2565b604051610271959493929190611538565b60405180910390f35b6102997452454349455645442041542057415245484f55534560581b81565b604051908152602001610271565b6102996613d3881213d31160ca1b81565b6102997353544f434b45442041542057415245484f55534560601b81565b6102de6108aa565b60405161027191906115c4565b6102996102f93660046114e4565b610910565b610299610931565b610299702922a1a4a2ab22a210212c90212aaca2a960791b81565b6103296109b1565b60405161027191906115d7565b600054610349906001600160a01b031681565b6040516001600160a01b039091168152602001610271565b61037461036f3660046116cf565b6109d9565b005b610329610a05565b6102996f4f555420464f522044454c495645525960801b81565b600154610299565b6103746103ae366004611733565b610a93565b6103746103c13660046114e4565b610aaa565b6102de610cdb565b610299701055081514905394d19154881413d25395607a1b81565b6102996314d3d31160e21b81565b6102996d524f4c455f57415245484f55534560901b81565b6102996b13d49111548814131050d15160a21b81565b610329610d31565b6102996614d2115315915160ca1b81565b6102de610d3e565b610329610d94565b61046161045c3660046114e4565b610da1565b604051610271949392919093845260208401929092526001600160a01b03166040830152606082015260800190565b610299692927a622afa12aaca2a960b11b81565b6102996c2927a622afa9aaa8282624a2a960991b81565b61029967111150d31253915160c21b81565b6102996f2927a622afaa2920a729a827a92a22a960811b81565b610299710a48a8288b2408c9ea4408892a6a082a886960731b81565b6104616105113660046114e4565b610de4565b610299692927a622afa0a226a4a760b11b81565b6102996c24a710282927a22aa1aa24a7a760991b81565b610299671050d0d15415115160c21b81565b6102996f1111535053910811d15391549055115160821b81565b610329610ee6565b610374610583366004611770565b610f6f565b61029968111254d0d05491115160ba1b81565b6102997f5550444154455f49504653434f4e5441494e4552484153485f524f4c4500000081565b60008181526002602052604081206005546060918291829185918290819067ffffffffffffffff8111156105f8576105f861162c565b604051908082528060200260200182016040528015610621578160200160208202803683370190505b50905060005b60055481101561072257600260008b815260200190815260200160002060010160006005838154811061065c5761065c6117ad565b6000918252602080832060088304015460079092166004026101000a90910460e01b6001600160e01b031916835282019290925260400190205460ff161561071057600581815481106106b1576106b16117ad565b90600052602060002090600891828204019190066004029054906101000a900460e01b828460ff16815181106106e9576106e96117ad565b6001600160e01b03199092166020928302919091019091015261070d6001846117d9565b92505b8061071a816117fe565b915050610627565b5060008260ff1667ffffffffffffffff8111156107415761074161162c565b60405190808252806020026020018201604052801561076a578160200160208202803683370190505b50905060005b8360ff168110156107d25782818151811061078d5761078d6117ad565b60200260200101518282815181106107a7576107a76117ad565b6001600160e01b031990921660209283029190910190910152806107ca816117fe565b915050610770565b50898460050185600201838760060160009054906101000a900460e01b8380548060200260200160405190810160405280929190818152602001828054801561083a57602002820191906000526020600020905b815481526020019060010190808311610826575b505050505093508280548060200260200160405190810160405280929190818152602001828054801561088c57602002820191906000526020600020905b815481526020019060010190808311610878575b50505050509250985098509850985098505050505091939590929450565b60045460009081526002602090815260409182902060050180548351818402810184019094528084526060939283018282801561090657602002820191906000526020600020905b8154815260200190600101908083116108f2575b5050505050905090565b600b818154811061092057600080fd5b600091825260209091200154905081565b60045460009081526002602052604081205460ff166109aa5760405162461bcd60e51b815260206004820152602a60248201527f74686520696e697469616c20737461746520686173206e6f74206265656e20636044820152691c99585d1959081e595d60b21b60648201526084015b60405180910390fd5b5060045490565b6060600d6040516020016109c59190611854565b604051602081830303815290604052905090565b81516109ec90600d906020850190611441565b508051610a00906007906020840190611441565b505050565b600c8054610a1290611819565b80601f0160208091040260200160405190810160405280929190818152602001828054610a3e90611819565b8015610a8b5780601f10610a6057610100808354040283529160200191610a8b565b820191906000526020600020905b815481529060010190602001808311610a6e57829003601f168201915b505050505081565b8051610aa6906007906020840190611441565b5050565b600354610b0a5760405162461bcd60e51b815260206004820152602860248201527f746869732073746174656d616368696e6520686173206e6f74206265656e2073604482015267195d1d5c081e595d60c21b60648201526084016109a1565b80610b1c610b16610931565b82610fef565b600480548382556000848152600260205260408120919291909101905b8154811015610ba457610b928386848481548110610b5957610b596117ad565b90600052602060002090600491828204019190066008029054906101000a900480156114c5021767ffffffffffffffff1663ffffffff16565b80610b9c816117fe565b915050610b39565b506040805160808101825283815260208082018781523383850181815242606080870191825260018054808201825560009190915296517fb10e2d527612073b26eecdfd717e6a320cf44b4afac2b0732d9fcbe2b7fa0cf660049889029081019190915594517fb10e2d527612073b26eecdfd717e6a320cf44b4afac2b0732d9fcbe2b7fa0cf786015591517fb10e2d527612073b26eecdfd717e6a320cf44b4afac2b0732d9fcbe2b7fa0cf8850180546001600160a01b0319166001600160a01b03909216919091179055517fb10e2d527612073b26eecdfd717e6a320cf44b4afac2b0732d9fcbe2b7fa0cf99093019290925592548451938452918301869052928201527f483a31c379a4b707332853662276a3424ec44f0ccbfc20d78fd9d143694f7669910160405180910390a150505050565b6060600b80548060200260200160405190810160405280929190818152602001828054801561090657602002820191906000526020600020908154815260200190600101908083116108f2575050505050905090565b60078054610a1290611819565b6060600380548060200260200160405190810160405280929190818152602001828054801561090657602002820191906000526020600020908154815260200190600101908083116108f2575050505050905090565b600d8054610a1290611819565b60018181548110610db157600080fd5b60009182526020909120600490910201805460018201546002830154600390930154919350916001600160a01b03169084565b60008080806001548510610e305760405162461bcd60e51b8152602060048201526013602482015272496e646578206f7574206f6620626f756e647360681b60448201526064016109a1565b60018581548110610e4357610e436117ad565b90600052602060002090600402016000015460018681548110610e6857610e686117ad565b90600052602060002090600402016001015460018781548110610e8d57610e8d6117ad565b906000526020600020906004020160020160009054906101000a90046001600160a01b031660018881548110610ec557610ec56117ad565b90600052602060002090600402016003015493509350935093509193509193565b606060078054610ef590611819565b80601f0160208091040260200160405190810160405280929190818152602001828054610f2190611819565b80156109065780601f10610f4357610100808354040283529160200191610906565b820191906000526020600020905b815481529060010190602001808311610f5157509395945050505050565b60008281526009602052604090205460ff16610fd0576008805460018181019092557ff3f7a9fe364faab93b216da50a3214154f22a0a2b415b23a84c8169e8b636ee3018390556000838152600960205260409020805460ff191690911790555b6000828152600a602090815260409091208251610a0092840190611441565b60008281526002602052604090205460ff1661106b5760405162461bcd60e51b815260206004820152603560248201527f7468652066726f6d20737461746520686173206e6f74206265656e20636f6e666044820152741a59dd5c9959081a5b881d1a1a5cc81bd89a9958dd605a1b60648201526084016109a1565b60008181526002602052604090205460ff166110e55760405162461bcd60e51b815260206004820152603360248201527f74686520746f20737461746520686173206e6f74206265656e20636f6e6669676044820152721d5c9959081a5b881d1a1a5cc81bd89a9958dd606a1b60648201526084016109a1565b6110ef8282611230565b6111735760405162461bcd60e51b815260206004820152604960248201527f74686520726571756573746564206e657874207374617465206973206e6f742060448201527f616e20616c6c6f776564206e65787420737461746520666f72207468697320746064820152683930b739b4ba34b7b760b91b608482015260a4016109a1565b61117c816112dc565b6112265760405162461bcd60e51b815260206004820152606960248201527f7468652073656e646572206f662074686973207472616e73616374696f6e206460448201527f6f6573206e6f742068617665206120726f6c65207468617420616c6c6f77732060648201527f7472616e736974696f6e206265747765656e207468652066726f6d20616e6420608482015268746f2073746174657360b81b60a482015260c4016109a1565b610aa68282611351565b6000828152600260205260408120600501815b81548110156112d45760408051602081018690520160405160208183030381529060405280519060200120828281548110611280576112806117ad565b906000526020600020015460405160200161129d91815260200190565b6040516020818303038152906040528051906020012014156112c257600192506112d4565b806112cc816117fe565b915050611243565b505092915050565b600081815260026020819052604082200180546112f857600191505b60005b815481101561134a5761132a3383838154811061131a5761131a6117ad565b906000526020600020015461139c565b15611338576001925061134a565b80611342816117fe565b9150506112fb565b5050919050565b6000818152600260205260408120600301905b8154811015611396576113848484848481548110610b5957610b596117ad565b8061138e816117fe565b915050611364565b50505050565b600080546001600160a01b0316158061143a5750600054604051630dace25b60e31b81526001600160a01b0385811660048301523060248301526044820185905290911690636d6712d89060640160206040518083038186803b15801561140257600080fd5b505afa158015611416573d6000803e3d6000fd5b505050506040513d601f19601f8201168201806040525081019061143a919061191f565b9392505050565b82805461144d90611819565b90600052602060002090601f01602090048101928261146f57600085556114b5565b82601f1061148857805160ff19168380011785556114b5565b828001600101855582156114b5579182015b828111156114b557825182559160200191906001019061149a565b506114c19291506114cf565b5090565b6114cd611941565b565b5b808211156114c157600081556001016114d0565b6000602082840312156114f657600080fd5b5035919050565b600081518084526020808501945080840160005b8381101561152d57815187529582019590820190600101611511565b509495945050505050565b8581526000602060a08184015261155260a08401886114fd565b838103604085015261156481886114fd565b8481036060860152865180825283880192509083019060005b818110156115a35783516001600160e01b0319168352928401929184019160010161157d565b505080935050505063ffffffff60e01b831660808301529695505050505050565b60208152600061143a60208301846114fd565b600060208083528351808285015260005b81811015611604578581018301518582016040015282016115e8565b81811115611616576000604083870101525b50601f01601f1916929092016040019392505050565b634e487b7160e01b600052604160045260246000fd5b600082601f83011261165357600080fd5b813567ffffffffffffffff8082111561166e5761166e61162c565b604051601f8301601f19908116603f011681019082821181831017156116965761169661162c565b816040528381528660208588010111156116af57600080fd5b836020870160208301376000602085830101528094505050505092915050565b600080604083850312156116e257600080fd5b823567ffffffffffffffff808211156116fa57600080fd5b61170686838701611642565b9350602085013591508082111561171c57600080fd5b5061172985828601611642565b9150509250929050565b60006020828403121561174557600080fd5b813567ffffffffffffffff81111561175c57600080fd5b61176884828501611642565b949350505050565b6000806040838503121561178357600080fd5b82359150602083013567ffffffffffffffff8111156117a157600080fd5b61172985828601611642565b634e487b7160e01b600052603260045260246000fd5b634e487b7160e01b600052601160045260246000fd5b600060ff821660ff84168060ff038211156117f6576117f66117c3565b019392505050565b6000600019821415611812576118126117c3565b5060010190565b600181811c9082168061182d57607f821691505b6020821081141561184e57634e487b7160e01b600052602260045260246000fd5b50919050565b7f6469643a64656d6f3a737570706c79636861696e66696e616e63653a0000000081526000601c6000845481600182811c91508083168061189657607f831692505b60208084108214156118b657634e487b7160e01b86526022600452602486fd5b8180156118ca57600181146118df57611910565b60ff1986168a890152848a0188019650611910565b60008b81526020902060005b868110156119065781548c82018b01529085019083016118eb565b505087858b010196505b50949998505050505050505050565b60006020828403121561193157600080fd5b8151801515811461143a57600080fd5b634e487b7160e01b600052605160045260246000fdfea26469706673582212205c388c8b96cb872428630693e0c7ee58db38d9375578410f9d1c7833930e276e64736f6c6343000809003352454349455645442041542057415245484f555345000000000000000000000074686520737461746520686173206e6f74206265656e20637265617465642079524541445920464f52204449535041544348000000000000000000000000000053544f434b45442041542057415245484f5553450000000000000000000000004154205452414e5346455220504f494e54000000000000000000000000000000524543494556454420425920425559455200000000000000000000000000000053656e646572206e65656473205550444154455f55494649454c44444546494e4954494f4e535f524f4c4553656e646572206e65656473204352454154455f53544154454d414348494e455f524f4c45a2646970667358221220b0ab7f5afd281c60d1e7f8b62329ee23973f73d7b691881d7a6d236ec9932d2264736f6c63430008090033",
  "devdoc": {
    "kind": "dev",
    "methods": {
      "create(string,string)": {
        "details": "Factory method to create a new supplychain. Emits StateMachineCreated event.",
        "params": {
          "Order_Number": "Unique Identification Number",
          "ipfsFieldContainerHash": "ipfs hash of supplychain metadata"
        }
      },
      "setUIFieldDefinitionsHash(string)": {
        "params": {
          "uiFieldDefinitionsHash": "value to assign to _uiFieldDefinitionsHash"
        }
      }
    },
    "title": "Factory contract for supplychain state machines",
    "version": 1
  },
  "userdoc": {
    "kind": "user",
    "methods": {
      "create(string,string)": {
        "notice": "Create new supplychain"
      },
      "getUIFieldDefinitionsHash()": {
        "notice": "Retrieves the value of `_uiFieldDefinitionsHash`"
      },
      "setUIFieldDefinitionsHash(string)": {
        "notice": "Sets the value of `_uiFieldDefinitionsHash`"
      }
    },
    "version": 1
  },
  "storageLayout": {
    "storage": [
      {
        "astId": 9858,
        "contract": "contracts/supplychain/SupplyChainFactory.sol:SupplyChainFactory",
        "label": "_uiFieldDefinitionsHash",
        "offset": 0,
        "slot": "0",
        "type": "t_string_storage"
      },
      {
        "astId": 2324,
        "contract": "contracts/supplychain/SupplyChainFactory.sol:SupplyChainFactory",
        "label": "gateKeeper",
        "offset": 0,
        "slot": "1",
        "type": "t_contract(GateKeeper)2056"
      },
      {
        "astId": 4395,
        "contract": "contracts/supplychain/SupplyChainFactory.sol:SupplyChainFactory",
        "label": "_registry",
        "offset": 0,
        "slot": "2",
        "type": "t_contract(StateMachineRegistry)4572"
      }
    ],
    "types": {
      "t_contract(GateKeeper)2056": {
        "encoding": "inplace",
        "label": "contract GateKeeper",
        "numberOfBytes": "20"
      },
      "t_contract(StateMachineRegistry)4572": {
        "encoding": "inplace",
        "label": "contract StateMachineRegistry",
        "numberOfBytes": "20"
      },
      "t_string_storage": {
        "encoding": "bytes",
        "label": "string",
        "numberOfBytes": "32"
      }
    }
  }
}